:1040000000000120417D00003D7D00003D7D00005D
:10401000BD5C00003D7D00003D7D00003D7D000059
:104020003D7D00003D7D00003D7D00003D7D0000A8
:104030003D7D00003D7D00003D7D00003D7D000098
:104040003D7D00003D7D00003D7D00003D7D000088
:104050003D7D00003D7D00003D7D00003D7D000078
:104060003D7D00003D7D00003D7D00003D7D000068
:104070003D7D00003D7D00003D7D00003D7D000058
:104080003D7D00003D7D00003D7D00003D7D000048
:104090003D7D00003D7D00003D7D00003D7D000038
:1040A0003D7D00003D7D00003D7D00003D7D000028
:1040B0003D7D00003D7D00003D7D000051D30000AE
:1040C00005D3000001D3000059CB00004DD3000000
:1040D00009D3000011D300000DD30000C1B80000C7
:1040E00091D300003D7D00003D7D00003D7D00003E
:1040F0003D7D00003D7D00003D7D00003D7D0000D8
:104100003D7D00003D7D00003D7D00003D7D0000C7
:104110003D7D00003D7D00003D7D00003D7D0000B7
:104120003D7D00003D7D00003D7D00003D7D0000A7
:104130003D7D000010B5054C237833B9044B13B115
:10414000044800E000BF0123237010BD28010020B7
:10415000000000004806010008B5034B1BB10349ED
:10416000034800E000BF08BD000000002C01002053
:1041700048060100A3F5803A704700BF174B002B9B
:1041800008BF134B9D46FFF7F5FF00218B460F46F6
:104190001348144A121A09F004FF0E4B002B00D0EA
:1041A00098470D4B002B00D09847002000210400B9
:1041B0000D000D48002802D00C4800E000BF09F0B7
:1041C000BFFE2000290002F097FF09F0A5FE00BF06
:1041D00000000800000000000000000000000120B6
:1041E00028010020801A00200000000000000000CC
:1041F000174B9868C0F304400C2822D8DFE800F081
:10420000092121212121071719211B1D1F001148F8
:1042100070479B6803F04073B3F1807F13D0B3F114
:10422000007F12D00C4A002B08BF104670470B4885
:1042300070470B4870470B4870470B4870470B4856
:104240007047002070470A4870470A48704700BF0F
:104250000040014A405DC60000093D000024F40012
:10426000C0EA210180BA8C010048E801005A6202CC
:1042700080841E0040420F00BFF34F8F0549064B5C
:10428000CA6802F4E0621343CB60BFF34F8F00BFF4
:10429000FDE700BF00ED00E00400FA05024610B59E
:1042A00000B3114B1968888890421BD3988800246A
:1042B000904281BF01200968988099609868998828
:1042C00028B904B198604FF6FF729A8009E08A42DB
:1042D00004D001310124006889B2F1E70CB19A8061
:1042E000986010BD0020FCE75007002000239B6A67
:1042F000B3F5804F03D21968064A914203D00023D8
:10430000037083607047012202709A689B69426063
:10431000F7E700BF07B0CD5E10B50C4630B90448D2
:10432000FFF7E4FF042304302060A380002010BDC9
:104330000402002000239B6AB3F5804F05D21B6B5B
:10434000B3F5804F01D29B6B184740F201107047C4
:1043500000239B6AB3F5804F05D21B6BB3F5804FEA
:1043600001D2DB6B184740F201107047024BD8684E
:1043700080B28002704700BF0080E00F7FB5034627
:104380006D460E4A02F110062C461068516808323C
:1043900003C4B2422546F7D15A1E0DF10F010F3367
:1043A00011F8010912F8014F844204D19A42F7D161
:1043B000012004B070BD0020FBE700BF50E1000009
:1043C00070B5154E306810BB144B154CE41A154BE4
:1043D0001C4424F4FF5424F01F04FFF7C7FF844259
:1043E00014D2656BA5B1FFF7C1FF854210D2FFF76C
:1043F000BDFF05F1400383420AD82846FFF7BEFF00
:1044000030B1EB6933F0080302D03460306870BD1E
:1044100004F50054E1E700BFA801002010000020CF
:104420002401002093260100034B044A9979117559
:1044300000221A60704700BFEC0D0020E806002043
:104440000022134630B58BB0D910415C03F007044D
:104450002141CC0742BF0AA9891801F8283C03F181
:10446000010348BF0132252BEED100230C4CD9109B
:10447000415C03F007052941C9075FBFB3FBF2F1B7
:1044800002FB11310AAD49194CBFD9B211F8281CF1
:104490000133252B04F8011BE9D10BB030BD00BF5F
:1044A0001207002010B5034CA01DFFF7C9FF002321
:1044B000236010BDEC0D002010B540F2E244074A25
:1044C0006043136800F5807004FB0131536801EB11
:1044D000500118441160506010BD00BFE806002074
:1044E0000A20D0B50B4CE38C584309F079FA064604
:1044F000A08C0F4609F074FA0022074B09F0DAFA93
:1045000002460B463046394609F0FEFB09F0E4FC52
:104510002083D0BDE80600200000F43F10B5094C10
:10452000B4F80710A079FFF7C7FFA368B4F80D101F
:10453000054AC3F30F239384D184FFF7D1FF0023EF
:10454000236010BDEC0D0020E8060020837DDB0712
:1045500001D5808A7047D0E901239B1A44BF828A23
:104560009B1898B270474369416CDA1D1439B2FB4D
:10457000F1F28069013203EBC202043000EB420029
:10458000DA1CB2FBF1F203EBC2030333B3FBF1F32A
:10459000023301FB03007047F7B507460E460025BE
:1045A0007C6CA819644280EA06031C4003D02C46A8
:1045B000204603B0F0BDFB6B01225B6901A998475F
:1045C000019B0133F4D10435EAE7000003460846B5
:1045D000EFF3108172B6DB6B014ADB68116018479C
:1045E000E40D002000234FF0FF3230B544689C42B8
:1045F00002D10023037230BD016801EBC30541F80D
:1046000033206A600133F2E72DE9F0434668002E5B
:1046100045D0056898464FF0000CA946AE4655F8BF
:104620003C400CF1010CC4F31307013401D0B94232
:1046300017D0B4450EF1080EF1D12F46002403E047
:10464000B44207F1080712D055F834300134013371
:10465000F6D1C1F3130141EA0851C7E90012BDE8E0
:10466000F08341EA0851CEE90012BDE8F083B8F1C9
:10467000030F14D0002303E0B34209F108090ED060
:1046800055F833400133C4F30754032CF4D1C1F37C
:10469000130343EA0853C9E90032BDE8F08301235C
:1046A0000372BDE8F08300BF41F67132034B002076
:1046B000DA63012203F50053DA607047000003401B
:1046C00041F671320121044BDA6303F50052D160E7
:1046D0000022DA63704700BF0000034070470368A0
:1046E00013F07E0F03D1406820F07C40704713F038
:1046F00078001CBF03F07F03D81F704737B505460D
:1047000001F10C04436901A9012220469847BDF834
:1047100004300122009369462046AB69984703B0F4
:1047200030BD202A0B681EBF4FF0FF3191408B43F4
:10473000590801F055315B1A03F033319B0803F03F
:1047400033330B44017803EB13130A444FF0013168
:1047500003F00F334B43A2EB13630370704737B57D
:10476000044600251B22011D0DF107008DF807509E
:10477000FFF7D7FF63689DF80720B2EBD36F03D133
:1047800023F0784003B030BD1B2204F108018DF8FE
:104790000750FFF7C6FFA0689DF80730B3EBD06F56
:1047A0000ABFC0434FF0FF3020F07840EAE74BF2F9
:1047B0009A22036810B5B2EB134F044613D19BB293
:1047C000012B13D1FFF7CBFF01300CD04FF6FF7256
:1047D000E068B2EB104F4FEA104309D180B2C01A23
:1047E00018BF012010BD2368013303D00420F9E76E
:1047F0000220F7E70320F5E70C4B10B50C4CE41A48
:104800000C4B1C4424F4FF5424F01F04FFF7AEFDAE
:10481000A04202D80024204610BD2046FFF7C7FF63
:104820000128F8D904F50054F0E700BF100000207B
:104830002401002093260100F0B50546002687B02C
:10484000EC69013CB44203D80C46204607B0F0BDE9
:1048500001B14C1E6F6C2868EB6B05225B6901A9E6
:1048600007FB0400984701A8FFF7A1FF0128ECD936
:1048700021460136E4E7F0B504680646091B446C9E
:104880000025B1FBF4F487B0F36930685A1E9542F5
:10489000776C06D3716C306801FB0400143007B0EC
:1048A000F0BD0134B4FBF3F103FB1144F36B0522BB
:1048B0005B6901A907FB0400984701A8FFF777FF90
:1048C0000128E7D90135DFE72DE9F04F1446074607
:1048D0000D469946C36B89B001225B6905A96068E2
:1048E0009847FB6B01225B69284604A99847059B02
:1048F0005A1C06D10020A360A075607509B0BDE800
:10490000F08F01224FF0000CA275227E049904EB77
:10491000C202D561A2F820C06668C1F3D310AE42CE
:1049200001F07F020BD14FF0FF3320602275A360AE
:10493000237D043B022B25D80020A075DEE72668E6
:104940008642207D18BF84F816C090421CBF00200C
:10495000A07503F07F0001288CBF00200120012AF0
:104960008CBF0022012290421CBF0022A27511F0D0
:104970007E0F03F07E0300F0E980002BD8D10023E6
:10498000A375D5E711F07E0F0FD1FB6B02222846ED
:104990005B6906A9984706A8FFF7A1FE237D032BB4
:1049A0003BD8DFE803F03535040904A8F4E7CC214F
:1049B000227E04EBC2021184664AD35C049E129AE2
:1049C00016F07E0B18BF00261370237E08BFC6F3B7
:1049D000C16604EBC3035FFA86FAB3F8208083F85C
:1049E00022A0BBF1000F00F08C8000231B2204A941
:1049F00006A88DF81830FFF794FE9DF81830049A39
:104A0000B3EBD26F0CBF012300230422637594E043
:104A1000227E04EBC2021084CEE7227E062B04EB3A
:104A2000C2021084C8D90123C8E794F816B0BBF1BC
:104A3000000F00F08880B8F1000F09D1DEB101232A
:104A4000617EE37500293CD19E4218D1667614E060
:104A50007B6CA818594285EA000C1CEA010F1CBFA8
:104A60000021A175591E01405B1A984569D8A37DA4
:104A7000002BE3D167E0E37DA3B94FF0000B28F0F2
:104A800003002844104418F0030F7B6C18BF043057
:104A90005B4285EA0002134203D029463846FFF7FD
:104AA000EAFEA060A27D12B1236943442361237E04
:104AB000012B0DD801332376B9F1000F0BD1A07D66
:104AC0001CE7012EEED0BAF1030F08BFA376D4E79E
:104AD0000023A375F3E7002AF1D0E37D002BEED08D
:104AE000BBF1000FEBD1032EE9D0A1684B1CE6D03F
:104AF000129B2246009338460123FFF7E5FEA0757E
:104B0000DDE7FB6B02225B6906A928469847202255
:104B100006A90DF10F008DF80FB0FFF702FE1A2263
:104B200007A9FFF7FEFD9DF80F30079AB3EB926FD0
:104B30000CBF0123002308226375637D002B7FF4E3
:104B400074AF0023A3754FF0000BABE7002B3FF4CD
:104B5000EFAE14E718E2000013B50C4600210093F5
:104B60002176134661682246FFF7AEFE18B1E37D59
:104B700003B1A07EA075A07D02B010BD70B5002568
:104B8000044686B00562E369AB4202D8206A06B0EB
:104B900070BD666C2068E36B05225B6906FB05004F
:104BA00001A9984701A8FFF702FE012898BF236AD0
:104BB00005F101059CBF01332362E4E7F0B5002550
:104BC00004462E4687B0E369B34202D8284607B0B0
:104BD000F0BD636C2768052203FB0677E36B01A930
:104BE0005B693846984701A8FFF7E1FD012809D81D
:104BF000204607F11401FFF7CFFC636C143B83429E
:104C000008BF01350136DEE7F0B504460D46466CB7
:104C1000E36B006887B005225B6901A906FB05000C
:104C2000984701A8FFF7C3FD012804D801A8FFF7A2
:104C300096FD07B0F0BD29462046FFF7FDFD06466C
:104C4000676C2068E36B05225B6901A907FB06001E
:104C5000984701A8FFF783FD431CEAD0B54238BF4F
:104C60000130E6E7074B9A6CDB6C110A0270120CFC
:104C700082701A0AC2701A0C1B0E417002714371C5
:104C8000704700BF0080E00F104B10B5D3F8203103
:104C9000044603F00703013B032B14D8DFE803F0BD
:104CA00002090C1004230A4804B1206001B10B7002
:104CB00010BD03230748F7E7FFF79AFA0523F3E748
:104CC00002230548F0E700231846EDE70080004086
:104CD000C0EA210100F04902002D310141F6713393
:104CE000012270B5194D0446EE69EB63184B0021A3
:104CF000DA600223686121202B6106F4803609F016
:104D00001FFA10B9212009F01BFA0122114BDA60B9
:104D10000EB10023EB63431C14D0A8B90E4B9B6863
:104D20000A3303F01F020123934023F003032344BB
:104D30009C4201D1002070BD54F8042B0132F7D001
:104D40000648F8E70648F6E70648F4E7000003409F
:104D500000100340002003400080E00F0EE000F050
:104D600021E000F024E000F0002070B5836AADF58A
:104D70000C7DB3F5804F05D34FF4017420460DF53B
:104D80000C7D70BD1B6B002BF6D04FF40B725B6A71
:104D900001A9984704460028F0D1064640F20125B3
:104DA000B36AB3F5804FE7D21B6BB3F5804FE3D204
:104DB00000219B6A01A89847A842F1D040F2032342
:104DC000984218BF0446D9E741F671330F4A10B52F
:104DD000D169D36393680E4C23F44013A04288BF7B
:104DE00043F4801393600B4A0B4CD2F81832A04264
:104DF00023F0020388BF43F0020301F48031C2F8BC
:104E0000183211B10022014BDA6310BD00000340DB
:104E1000C017530200C0074080F0FA0237B50446BD
:104E2000684680E80600251D03C885E80500237351
:104E3000069B0B4A2361BDF81C30A382002323602C
:104E4000136853B119461B68002BFBD10C60908886
:104E5000013080B2908003B030BD1460F7E700BF2E
:104E60004807002037B50D461446FFF717FA70B112
:104E7000036973B14FF6FE72818A914209D1694686
:104E800001200095ADF80440984703B030BD0120E3
:104E9000FBE70E20F9E7036937B514460D46828A11
:104EA00063B14FF6FE718A4208D100206946009036
:104EB000ADF80400984728B103B030BD2B60002046
:104EC0002280F9E7009B2B60BDF804302380F3E7D4
:104ED00038B50D461446FFF7E1F940B122462946A0
:104EE000FFF7D9FF10B92B6803B9208038BD012026
:104EF000FCE7000007B50379054A0193036806CA79
:104F0000009308300223FFF789FF03B05DF804FB2C
:104F1000B8E200002DE9F0410546984688B00369E3
:104F200008460E4617469847002869D1D8F804303D
:104F30005B0A012B02464FEA530300F10100F8D847
:104F400098F8034098F802302403DB0203F400636E
:104F500004F480541C43B8F800304FF00008C3F349
:104F60000A032344540304F460441C44294B6FEAAD
:104F70000444039327F07843FF430DF107001B22FD
:104F800002A902938DF80780FFF7CBFB9DF807205D
:104F9000029B02A943EAC26327F078471B220493CD
:104FA00002978DF80780FFF7BCFB9DF80720029B56
:104FB0006FEA144443EAC26305934FF0FF330122C2
:104FC00006930794AB6907A906F1100098470122E0
:104FD0000446AB6905A906F108009847012240453F
:104FE00018BF0446AB6904A9301D9847012240450B
:104FF00018BF0446AB69304603A9984700B934B1DD
:105000003146284608B0BDE8F041FFF777BB08B04D
:10501000BDE8F08101009AB2034B5A6D12B9586590
:10502000A3F85810704700BFE806002070B50C4682
:1050300090B9FFF7C5F958B1436B084D03F140062D
:105040002A4618685968083303C2B3421546F7D197
:10505000034B23600423A380002070BDAC0100201B
:10506000CC0100202DE9F04116460546FFF76EFA07
:10507000B04228BF304686B20F46B046B8F1000FA6
:1050800009D12EB1AB7DDA0744BF23F00103AB7524
:105090003046BDE8F0812B68AC8A69681C44641A0C
:1050A000A4B2444528BF44463846224608F06CFF67
:1050B0006A682B68A98A224419448A4238BF134679
:1050C0002744A8EB04041FFA84F86B60D6E7F8B510
:1050D0001F46038A04461646EBB9C57DDDB10123A0
:1050E000013D0B700222C57500F11001FFF7BAFFF8
:1050F000E37D9BB1228A3146BA4228BF3A46204618
:10510000FFF7B0FF238A1B1A2382E37D13B9638A5A
:105110001B1A6382F8BD00230B70EBE7638A2382BE
:10512000E8E72DE9F04104460F461146FFF70EFA75
:10513000A38A181A86B28E4228BF0E46B046B8F12E
:10514000000F0BD13EB1D4E901329A4202BFA37DD8
:1051500043F00103A3753046BDE8F0812368A58ABA
:10516000A0681D442D1AADB2454528BF45463946B5
:105170002A4608F009FFA2682368A18A2A44194434
:105180008A4238BF13462F44A8EB05051FFA85F85D
:10519000A360D4E7F8B5044616461F4611B3FFF7DF
:1051A000D5F9A58A281A80B2012829D9E37D63B1EF
:1051B000E068658A05702D0A07D02268A38A01304D
:1051C0001344984228BF1046F4E700236382A36883
:1051D0000222E360204604F11201FFF7A2FFE37D03
:1051E0000133E3753A4631462046FFF79AFF638A5A
:1051F00003446382E37D13B9238A03442382F8BD09
:105200000020FCE710B5044644EA010313F0030351
:10521000084609D1934201D1002010BD54F8231053
:1052200040F823100133F5E72146920008F0ACFE68
:10523000F2E7000013B504460379124A03330193E1
:1052400000F14403009306CA02231430FFF7E6FD81
:1052500094E80600238A04F12C000193E36800938C
:10526000237AFFF7DBFD237A22792168A4F8450031
:1052700004F1470084F8443002B0BDE8104008F063
:1052800083BE00BFB0E2000070B50C4B0C4C06466C
:105290000D46D4E9010183E803001846FFF72AFE12
:1052A000D4E904010222074B1A7283E80300DE608E
:1052B0001D821846BDE87040FFF7BCBFA413002054
:1052C000F4E100003005002038B5202204460D46E8
:1052D0000C30002108F065FE4FF0FF33C4E90035C3
:1052E000A36038BD2DE9F04F0F462DED028B002550
:1052F00089B004464FF0FF311046C7F3130B9046B8
:1053000099468DF80B50FFF7DFFF5F456AD12B46BA
:10531000E1688B420DD0A26802EBC30052F8332043
:10532000561C0FD0C2F3130293450BD141684D1C9C
:105330000AD1237C002B57D1464809B0BDEC028B23
:10534000BDE8F08F0133E4E74046FFF7BDFF0122DF
:10535000414620460DF10B03FFF7FEFB0028E8D085
:105360009DF80B3089F800300020E6E72068361AF7
:10537000606CB6FBF0F63FE05046FFF7A5FF18EE75
:10538000102A514620460DF10B03FFF7E5FB84463A
:10539000B8B1B91C03D0DAF80030BB4211D1454690
:1053A0009DF80B30DFF8B0E089F80030BEE80F0060
:1053B0000FC5BEE80F000FC59EE8070085E807008F
:1053C0006546DAF8081032E0002DB5D05F45CBD144
:1053D000394699F80030D8F8042004F10800FFF7A6
:1053E00013F9C1E7BB1CA4D1E66A701CBED12046EC
:1053F000616AFFF721FA0646BB1C18BF012308EEBD
:10540000103ADFF854A0636A25680193636C03A91E
:1054100003FB0655E36B05225B692846984703A802
:10542000FFF7C5F905F114031946002500934A1C3E
:1054300005D0636C009A5B424A4013429CD03146CF
:105440002046FFF7F9F9019BB342BDD0002DBDD135
:105450000646D8E70BE000F0000F00202DE9F04FE2
:105460004FF0FF3300258B464FF6FF71044600F1E5
:105470000806C0E9091387B0C362056205633046B8
:10548000FFF7B0F82046FFF779FB00285BD14FF615
:10549000FF79D4F824800027C84514BF454600256D
:1054A000E3699F4252D32046FFF768FB002833D1BF
:1054B000B34D2046FFF782FB06E12368E26B606C88
:1054C000576900FB0530052201A9B84701A8FFF77D
:1054D0006EF90128074603D0C31EDBB2012B12D898
:1054E00029462046FFF790FB0246012F2168676C92
:1054F000E06B434607FB051108BF0132FFF70AFDC9
:105500002046FFF73BFB0135E3699D42D5D320469A
:10551000FFF734FB0028BAD000254FF0FF384FF6D4
:10552000FF73C1462F46C4E90853E3699F423FD346
:10553000A5EB0805012D5ED84FF6FF72636A934212
:105540006ED1904DB5E704F14008DDE7636CE26B86
:105550002068D2F814C003FB0500052201A9E0472A
:1055600001A8FFF724F902280FD0C84515D10BF187
:105570000102606C216804F1400300FB0511E06B3F
:10558000FFF7C8FC2046FFF7F9FAE3690135B5FBE0
:10559000F3F2013703FB125582E729462046FFF755
:1055A00033FBB0F1FF3F14BF02465A460132E0E739
:1055B000636CE26B2068D2F814C003FB070005227D
:1055C00001A9E04701A8FFF7F2F8824601A8FFF71A
:1055D000C6F8BAF1010F0CD8484538BF676280455C
:1055E00028BF8046854238BF05468146236A01337D
:1055F0002362013799E74FF6FF7300256362E36981
:105600009D4299D2676C2068E36B052207FB050079
:105610005B6901A9984701A8FFF7A1F80135EEE7FA
:10562000E26B676C2068556907FB0300052201A93E
:10563000A84701A8FFF793F8626A616C2368524D8E
:1056400001FB02331433A3624FF0FF332A46E362B7
:105650006FF0010120460DF10303FFF743FE002820
:1056600036D1AD6829462046E562FEF795FF2063F6
:1056700020B92046E16AFFF7FEF8E062294620469D
:10568000FFF7F9F80546A36A9D4223D16369656C6B
:105690002046A5F11402DD1CB5FBF2F503EBC505B0
:1056A0000335B5FBF2F5FFF789FA0235A8428046CB
:1056B0003ED22046616AFFF7BFF80027064604F194
:1056C000400AAF4218D3314D284607B0BDE8F08FED
:1056D000A56AC7E729462046FEF75EFF236B2946E9
:1056E0000344074623632046FFF7C5F80546002F0D
:1056F000C9D1C4E90B07C6E7474512D3626C2368DA
:1057000001A902FB0639E36B05225B69484698470D
:1057100001A8FFF724F8534602464946E06BFFF71D
:10572000F9FB31462046FFF787F801370646C8E700
:105730003046FEF757FF164DA16AE36A994201D041
:105740004B1C01D10025B4E62846FFF7BDFD012220
:10575000294620460DF10303FFF7FEF930B1D5E9E4
:10576000001230469DF80330FEF74EFFA9684A1C30
:10577000E3D169682046FFF77EF80146DDE700BF08
:1057800003E000F016E000F0D40E002013E000F07B
:105790002C0F00202DE9F74F324D4FEA820AEA69BB
:1057A000894602F4803341F6713201210093EA63A5
:1057B0002D4A8046D16083464A4657460FB938463F
:1057C0002EE00BF5005424F4FF5424F01F04C5F818
:1057D00014B0A4EB0B04E969BC4228BF3C4649075E
:1057E00039D4164656F8041B2244A96196420ED1BC
:1057F0000422002121202A6108F0A2FC80B9212086
:1058000008F09EFC60B93246A3443F1BD6E708214E
:105810000846019208F094FC019AC0B104232B6160
:105820000122124BDA60009B13B100220D4BDA63A8
:10583000431C13D0A0B952464946404608F0C2FB6B
:1058400000280B4808BF002003B0BDE8F08F56F8D1
:10585000041BA961CAE74FF0FF30E1E70548F3E711
:105860000548F1E70000034000100340002003401A
:1058700010E000F021E000F024E000F02DE9D34F2B
:10588000DDF8289004460F4690461E46BDF82CA031
:10589000FEF704FD8346BBF1000F01D0BC4205D9E1
:1058A0004FF6FF74204602B0BDE8D08F9BF8083059
:1058B0009E421CD132464146DBF8040008F082FBD0
:1058C000A8B9B9F1000FEDD058460DF1020201A9B7
:1058D000FFF7E1FA58B9019949B1BDF802305345D3
:1058E00005D15246484608F06DFB0028DAD0013455
:1058F000DBF800B0A4B2CEE738B50C4611462568F7
:105900000144AD1A2A4608F06DFB256038BD000041
:105910002DE9F84F07EE901A4B4B4C49DFF84C91AC
:105920005B1A4B49D9F800600B4423F4FF53A0EBFA
:105930000608DFF83CA123F01F03984505461446EE
:10594000CAF800807DD38718FEF756FF08B9FEF726
:105950000DFD874272D8D9F800000719B7F5806F9E
:1059600003D982223B4B1A7066E0DFF8FCB0224676
:1059700017EE901A584408F007FB374BC9F800702F
:105980001A6822B9332F57D9DBF834201A60186807
:1059900008EB070480451ED884421CD900F110038F
:1059A0009C4249D30644751B5D442B462B4A05F1A6
:1059B000100153F8040B8B4242F8040BF9D127482D
:1059C000FEF7DCFC10B98422224BCCE71022FF2129
:1059D000284608F0E6FA224D224B07F00307286814
:1059E000E41B1C4058B908EA0300C0F500512144EB
:1059F000FEF7AEFC2C6040B18522164BB3E7A04207
:105A000003D2211A00F50050F2E7D9F80020164918
:105A1000D21BDAF80000FEF78DFC0446D9F800200E
:105A2000DAF80030D21B134410490F48CAF800308E
:105A3000FFF762FF002CDFD1BDE8F88F8322054B12
:105A400091E78722034B8EE72401002010000020FD
:105A5000932601008D0B00201C0E00200C0E002050
:105A60005C13002000E0FFFF580F002058130020B7
:105A7000900B0020002337B5114C0093437A6060EF
:105A8000D0E90021206802F0F0FD238CDB050CD565
:105A900063680C4D1B7A2A789A4206D0012B06D0F7
:105AA000022B08D063681B7A2B7003B030BD2068CE
:105AB00002F0B0FDF6E7206802F0B2FDF2E700BFA9
:105AC000601300204507002013B50D4B01281B8BE8
:105AD0000C4CADF80430ADF8003002BF02238DF855
:105AE0000430042301A9206808BF8DF8003002F0BB
:105AF000C1FC6946206802F0D3FC02B010BD00BFB3
:105B0000F4E10000601300200022034B03211A611E
:105B10001868012202F0D2B9601300201FB50223D9
:105B20008DF80630064B5A8B59690332ADF80420C4
:105B300018686A4602F02CFD009805B05DF804FB79
:105B40006013002010B51E4C1946236986B023B39C
:105B5000A2F10800084322D1032101AA206802F023
:105B600013FD636860615B7A022023769DF8043040
:105B700004F11801DA1F53425341627E63F30002BD
:105B8000039B6276E361BDF806306383236998471F
:105B900001220021206802F0FDFC06B010BD02F1D8
:105BA0007F40014305D10021012006B0BDE810402F
:105BB000184712F4A0411ABF00210320FF20F4E788
:105BC00060130020F0B5194C194D87B0637A204658
:105BD0000133DBB2272B88BF25236372FFF74AFF0F
:105BE000627D4FF40073134902322868E768667CCF
:105BF00002F0ABFC6B68104A5B7A06F00106D15CE0
:105C000030460391FFF760FF0123002205930399BB
:105C10002868009204AB049702F054F910B1FFF722
:105C200073FFD3E7054B2B6107B0F0BD44010020A3
:105C3000601300205801002085E20000FD6A00008A
:105C4000EFF3108072B67047044B054A9A60D3F8A0
:105C5000882042F47002C3F88820704700ED00E00D
:105C600000400000084B1B6F03F00703022B04D019
:105C7000032B04D0012B04D0FEE7044870470448EE
:105C800070470448704700BF00800040C0EA21010F
:105C900000F04902002D310108B5FFF7E3FF044B86
:105CA0001B6FC3F301330133B0FBF3F008BD00BF3A
:105CB000008000400048704700F0490208B5FEF738
:105CC000DBFA7047FEE70000002307B500932528A4
:105CD00017D8DFE800F0135B1A252C37516A767A63
:105CE0008A97A6B4165B561616765B252C25375B6D
:105CF0006A25B4515151512525257A8AFFF7B2FF03
:105D00000090009803B05DF804FBFFF7ABFF4F4B2A
:105D1000D3F89030C3F304630133B0FBF3F0EFE743
:105D2000FFF7BAFF494B1B6FC3F38023F4E7FFF77C
:105D3000B3FF464B1B6FC3F380230133B0FBF3F07B
:105D40004008DDE70193414BD3F8803103F00303B2
:105D5000022B0AD0032B0CD0012B03D1002101A868
:105D6000FEF792FF019B0093CBE7FEF741FA01900B
:105D7000F8E7374B0193F5E700216846FEF784FF0B
:105D8000BFE74FF0E0231B695B0702D5FFF784FFF5
:105D9000B6E72E4BD3F8400100F0030003282ED0C5
:105DA000002818BF4FF40040AAE7284BD3F8403131
:105DB00003F00303032B46D0002B18BF4FF400431E
:105DC000D1E7224BD3F86031F2E7204BD3F8000241
:105DD00000F00703032B12D010F0040009D1013B9F
:105DE000012B98BF4FF400408AE7184BD3F8080204
:105DF000EEE7042B1ED1FFF74FFF800A80E74FF438
:105E00007A707DE7114BD3F8003103F00303012BC7
:105E100005D0022B14BF00234FF40043A3E70D4B22
:105E2000A1E70A4BD3F8803003F00303022BADD077
:105E3000032B01D0002063E7FEF7DAF960E7034B9C
:105E4000D3F84032B4E74FF47A738CE70080004017
:105E5000002D310100F0490200B962B67047000020
:105E60002DE9F04106460D4614460C4F0CB9BDE82D
:105E7000F081EFF3108872B623462A463146384641
:105E8000FFF788F903464046FFF7E6FF002BEDD009
:105E9000E41A0026A4B21D44E8E700BFC80C0020A5
:105EA000002313B501F1080421461A46ADF8043069
:105EB000ADF8060051F8080C083170B90BB1ADF817
:105EC0000420042201200DEB02010834FFF7C8FF73
:105ED00054F8101C39B902B010BD51F80C3C1A44EA
:105EE00092B20123E6E7002034F80C2CEDE7000025
:105EF0007FB500230130CDE9043380B2054BCDE9F5
:105F000001016946042000930392FFF7C9FF07B01F
:105F10005DF804FBF201002008B5C3680020984733
:105F2000024B1868BDE80840FFF796BFE40D00205B
:105F30002DE9F04FDFF8E8A287B09AF80030064666
:105F40008946009203F0FF089BBBFEF755FC07460D
:105F5000FEF70CFA77B1A94BA94CD3F800B0C3F8FF
:105F6000008094F83430A0F50055ED1B53B323683E
:105F70009F4206D000264046009B1E7007B0BDE839
:105F8000F08F63689D42F5D1A2689E4B9A42F1D191
:105F9000E368062BEED140F26C7362699A42E9D154
:105FA000E26B994B9A42E5D1C4F8188001238AF834
:105FB0000030934F97F83430002B40F08380002658
:105FC000B046D8E7A36B4022414604F1100001938C
:105FD00007F0E7FF019B04F10800A36340F26C7334
:105FE0006361884BC4E90075A3600623E360FEF794
:105FF000F9FA854B04F14000E36301F085FE0028C7
:106000005ED1636C13B16268B2FBF3F394F8432082
:10601000E361002AAED0656C002DABD0002BA9D077
:106020002368B3FBF5F205FB1233002BA2D167689E
:10603000B7FBF5F305FB1373002B9BD17048FEF7FC
:1060400092FA874296D340F634726369CC3B93420E
:1060500090D8B5F5007F8DD303216948FEF7B6FAD5
:10606000D4E90001E36B1B6898470546E36B022007
:10607000DB689847C5B959466148FFF7EFF9634BAC
:106080000546984204D159465D48FFF7E7F90546B1
:1060900055B9636C276A143B59485F43FEF763FAAE
:1060A0005B4B874238BF1D46B5FA85F3E06B5B0951
:1060B00084F83430FFF730FF002D3FF477AF59E715
:1060C0004346A3E7DFF84CA10121384646F480257A
:1060D000FEF77CFA52462946384604ABFFF702F930
:1060E000044600283AD19DF81030032B36D0022BFD
:1060F00037D0DAF81060F86BFFF70EFF002C7FF452
:106100005EAF009B1B78B342FFF459AF97F8348021
:10611000B8F1000F3FF453AF01213948FEF756FAAA
:1061200029463C4A36480DF10B03FFF7DBF80546DC
:1061300060B99DF80B30012B74D1DAF81030B342FE
:1061400076D13546DAF804A0FB6B65B9F86BFFF73A
:10615000E3FE002D7FF433AFF6B20CE700262E4CA1
:10616000C9E70426C7E701225B6903A9504698479F
:106170002849039B0968C3F3D31291423BD113F022
:106180007E0F2CD003A8FEF7AAFA4FF0040BA8420A
:1061900028BF284603280446D344A5EB00050BD9A5
:1061A000FB6B49465B6982085846984724F0030315
:1061B0009B4404F0030499445CB1FB6B01225B69CE
:1061C00004A9584698474846224604A907F0DCFE31
:1061D000A14451460A48FEF74EFB8246B4E7FB6BEA
:1061E00002225B69504604A9984704A8FEF777FA93
:1061F0004FF0080BCBE7094DA8E700BF24040020AF
:10620000580E0020200E002068E2000013E000F08D
:1062100002E000F0A80E00200BE000F022E000F009
:10622000500E0020034D0448022B18BF05468DE791
:10623000024D8BE70CE000F00BE000F011E000F005
:1062400000239A6A10B5B2F5804F0DD2EFF310809B
:1062500072B6064A11781370FFF7FEFD21B1BDE852
:1062600010409B6A1B6A184710BD00BFE80D002054
:1062700001282DE9F34740F03D818B88012B40F048
:106280003B810B681C7814BB9D4B9E4D1C609E4B44
:106290001C609E4B1C609E4B1C609E4B1C609E4B6A
:1062A0001C709E4B1C609E4B1C602B78022B01D1F6
:1062B000FFF7C6FF01232B7000239A4A13709A4AF6
:1062C00013709A4A1370204602B0BDE8F087032C81
:1062D00040F0FE80954BDFF82C921C78002C40F0AB
:1062E000888099F80030002B00F0E6808A4B1B78FC
:1062F000082B40F08280DFF80882D8F8000068B9E7
:1063000000239B6AB3F5804F5DD34FF4017041F2D7
:106310000804A0420CBF862480246AE010F0030623
:106320000EBF2646C6F10406F6B200EB060ABAF521
:10633000806F00F2C7807E4B3246FF211844774FB2
:1063400007F02FFE7B4A3B6812680AEB030191427B
:10635000C8F800A000F2BA806B4A15681D44554485
:10636000DFF8B0A125F4FF55DAF8000025F01F058D
:10637000854207D9291A00F50050FDF7E9FFE8B971
:10638000CAF800500020836AB3F5804F18D21B6B07
:10639000B3F5804F14D21D69654AD8F800303968CA
:1063A000A84705463B68D8F80020554913449E1B72
:1063B0005F483E60FFF7A0FA002DA1D0852418E0C9
:1063C0004FF48175EEE7FEF7CFFC00289FD1836A7A
:1063D0000190B3F5804FF1D21B6BB3F5804FEDD236
:1063E00001219B6901A898470028E7D101224E4B63
:1063F0001A70002389F8003065E7002B5ED0494B06
:106400001B78002B5CD0464E336843B9404B1022BA
:1064100049491868FDF78EFF0028EAD0CEE713F04F
:1064200003021CBFC2F10402D2B203EB0208B8F5AA
:10643000806F47D84148FF21184407F0B2FD404A19
:10644000404B324F9B1A404A3D68134423F4FF539C
:1064500023F01F03AB42C6F8008035D8A844FEF7EE
:10646000CBF908B9FDF782FF80452FD83368DFF8F4
:10647000A4801D44D8F8000025F4FF5525F01F0521
:10648000854208D9291A00F50050FDF761FF002860
:1064900094D1C8F80050326828493868FDF74AFF9F
:1064A00005463B6832681E49134424483B60FFF7A9
:1064B00023FA002DAAD081E781249AE7842498E763
:1064C000802496E7822494E7872492E7832490E748
:1064D000042C13D1132302211C4843700170FEF7D2
:1064E0009BFD1B4A1B4B128905329A801A4A1A607F
:1064F00042789A710024E6E60D24E4E60624E2E6FA
:10650000880B00208E0B002004140020900B00202C
:106510001C0E00205C130020EC010020940B0020D6
:10652000581300208C0B0020F90100208D0B002057
:1065300088070020081400200C0E0020580F0020AF
:10654000100000202401002093260100000E0020EE
:10655000E8060020EC0D00200170000000239B6A7B
:1065600010B5B3F5804F0ED2EFF3108072B6012153
:10657000054A13781170FFF76FFC23B9BDE810408E
:106580009B6ADB69184710BDE80D00202DE9F04F2C
:10659000012891B004D00024204611B0BDE8F08F4E
:1065A0008A88002A00F0C781A24F97F800A0BAF1AC
:1065B000000F00F0C281A04D2C78002CECD1DFF848
:1065C000A8B29BF80040002CE5D19C4E306802EB4D
:1065D0000009B9F5806F02D982242C70DCE7DFF85E
:1065E00074820968404407F0CFFCBAF1020FC6F884
:1065F000009032D0B9F1030FCDD99148FDF776FE66
:106600000378D8F80020012B3DD14368190E0129E9
:1066100003D1C3F307430A2B3DD98A4B9A4240F07A
:10662000D8808368DA0334D502233B70FFF796FFE6
:106630000020836AB3F5804F06D21B6BB3F5804F01
:1066400002D29B6809A998477F4B099A1A607F4B31
:106650000A9A1A603B78022B9DD1DFF810923368BA
:1066600099F80020082A59D1DFF8F081774AD8F844
:106670000000126803F0030AC118A1EB0A0191425D
:106680000BD98324A9E76F4CA2420CBF8624842433
:10669000A3E78624A1E788249FE76B4A17681F4475
:1066A00007446B4BA7EB0A07186827F4FF5727F03E
:1066B0001F07874209D9391A00F50050FDF748FE37
:1066C000634B08B1852488E71F600020836AB3F517
:1066D000804F20D21A6BB2F5804F1CD233681769F5
:1066E000D8F800105B4AA3EB0A03B84707463268A4
:1066F000D8F80030A2EB0A02134450495548C8F8B4
:106700000030FFF7F9F8002FDCD199F80030002BAA
:106710007FF441AF04E04FF48177E8E7002A5AD1D3
:1067200033687F2B7FF637AFDFF83481D8F800006D
:10673000E8B9836AB3F5804F13D20123CDE90A008B
:1067400009A88DF82430FDF7D1FD0A9B1A0E6ED0F2
:10675000012A67D1C3F307430A2B63D867D14FF4EB
:1067600003703D4B186007F025FCC8F800000023BB
:106770009B6AB3F5804FA5D2374A9B6A1168D8F857
:106780000000984700289DD1836AB3F5804F20D23E
:1067900001233268CDE9070006A88DF81830D8F833
:1067A00000A00392FDF7A2FD079B190E11D001294D
:1067B000039A03D1C3F307430A2B0AD9002305A97F
:1067C0009B6A00915F6B5046224909ABB84700288D
:1067D0004ED0842401E721490A681A440A60002245
:1067E000926AB2F5804F13D21D48D76A1D49194AE3
:1067F0000068B8470746326810491648FFF77CF82A
:1068000040F203239F4206D101238BF80030C3E6F8
:1068100040F20227EFE740F201239F423FF475AFB9
:106820008024DAE600239B6A9B6B984799E74FF434
:10683000C07096E78E0B00208D0B0020880B002087
:1068400010020020EB17A6030414002008140020F7
:106850005C13002088070020AC0B0020940B002064
:10686000A80B0020980B00208C0B0020EC010020CE
:106870009DF8243089F800300393FDF7A1FD039BB8
:10688000074648B3D0F834A0002B3FF485AE002370
:106890000693042335200DF1130206A98DF8133059
:1068A000FFF746FB069BDB071AD599F80030082B4B
:1068B00014D0BAF1000F42D0534610220CA903F1B4
:1068C0002800039307F07EFB20B9039B0A9A1B6AFA
:1068D0009A4205D8892480E68246D5E7304BECE71A
:1068E00097B14FF400513846FDF732FD00287FF490
:1068F000E9AE2AF4FF504FF4005120F01F00FDF7DD
:1069000027FD00287FF4DEAE99F80030082B18D15F
:10691000244B254A18684FF4005120F4FF5323F00C
:106920001F031360FDF714FD00283FF435AEC9E6E0
:1069300040F2022724E00D242EE681242CE6002FCD
:10694000CFD11A4B1A4F7B6000239B6AB3F5804F5F
:10695000BFF4B8AE174A9B6A1168D8F80000984790
:1069600000287FF4AFAE836AB3F5804FE0D239469A
:10697000D3F82C90104A3368D8F80000C84707466F
:1069800032680E490C48FEF7B7FF40F203239F42DE
:106990003FF43AAF40F201239F423FF4FDAD3FE7A1
:1069A00028E20000041400205C13002011590000AC
:1069B000980B0020AC0B002088070020880B0020DB
:1069C00008B5074B4FF000541B782BB1FFF7C6FDFD
:1069D000044B2360FDF750FC2360FDF74DFC00BF26
:1069E000F901002002020FF010B5164CA37E5B06E1
:1069F00026D4FFF789F840F2E243A18C226803FB1A
:106A00000122A37A226094F84F2013442522B3FB7D
:106A1000F2F002FB10332289A372013222810A2292
:106A2000636802FB01336360238B5A1E22833BB9E8
:106A3000A27E42F04002A276034A1370FFF7C0FF25
:106A400010BD00BFE806002044070020F0B5254C2B
:106A500087B0A37E5A0640D4234A23F0070343F0AD
:106A60000103A376136821891BB192888A4200D161
:106A70009847A37A1D48234493F82A306375FEF79C
:106A8000F9FFD4E900561A4C1A4A636801205B7A70
:106A90007708D15CA5EB56060191FFF715F84FF486
:106AA000807302960026643501993D44ADF8143098
:106AB00002AA3346206804958DF80C608DF81660A4
:106AC00001F026FA054601223146206801F062FDF8
:106AD0002DB1FFF789FFFFF7B9FF07B0F0BD064BF7
:106AE0002361FAE7E8060020EC0D0020F406002000
:106AF0006013002085E20000656C000002282DE98B
:106B0000F0411DD002D8012807D0FEE7032800F08D
:106B10009E80FF2800F09B80F7E74E4C637C99072E
:106B200007D5FEF7F1FFFFF74DF8637C6FF34103E4
:106B30006374637CDA0768D4BDE8F041FFF742B8BC
:106B40004B78DB0740F183804C68227802F00F0815
:106B5000B8F1030F5BD0B8F1050F78D13E498B7BBC
:106B600003F00103B3EBD21F4FD10622083104F129
:106B7000080007F027FA0646002846D1FEF7C4FFB2
:106B8000FEF7CCFF354D314607465C22284607F01C
:106B900008FAAB7EA5F8188043F02003AB76627E3E
:106BA000237E012643EA0223AB84627F237F04F124
:106BB0001E0043EA0223EB8494F82330C3F304035A
:106BC00085F84F3094F82330C3F3421385F85030E2
:106BD0001B232B85FDF734FCD4F80E30E27CEB60F0
:106BE000A37C2F6043EA0223227D2E7543EA0243F1
:106BF0002B6195F84F30607DAB72E18A3144FDF72F
:106C00005BFCFFF723FF164B1E70BDE8F081124DB1
:106C1000AB7B03F00103B3EBD21FF6D1062205F1E3
:106C2000080104F1080007F0CDF90028EDD1094C66
:106C30004FF4007394F83D202868023204F13C01BF
:106C400001F083FC637C43F002036374DDE7FEF72D
:106C50005BFF71E74401002060130020E80600207C
:106C60004407002002282DE9F34780460C460BD04C
:106C700003D8012800F0AE81FEE7032800F0B081C0
:106C8000FF2800F0AD81F7E74B78AB4D13F001031F
:106C900000F0BC804A68AF7E117892F80090C1F392
:106CA000001161F38207AF76C9F3C001C7F3001783
:106CB000B94240F0A88009F00301022900F0A18048
:106CC000032918D0012940F09E804FF0000A567821
:106CD00096B19A48818AFDF739FC0B1A9BB2BAF13A
:106CE000000F04D0022B92BF0023023B9BB29E42B6
:106CF0008CBF002301231E46A97EC9F38009C1F37E
:106D0000C002914508D082F00102D20042F0200278
:106D100021F028010A43AA762BB1AB7E87F0010748
:106D200067F30413AB76AB7E854F13F0200F11D0C1
:106D3000696D6FF34513AB76002969D03B7895F800
:106D4000582043F003033B707A70B81C07F01CF91D
:106D500000236B657B48FDF7F9FB003818BF012065
:106D6000AB7E774960F34103C3F3C002AB76C3F354
:106D700000139B0043EAC20343EA00103B787A7891
:106D800023F01C03184338706F4F02324FF4007326
:106D90003868D2B201F0D9FBAB7E6468D90709D557
:106DA0006FF30003AB7600236B60FEF7B7FE28603D
:106DB000FDF796FB002E00F0A180237803F003037B
:106DC000022B05D0032B3DD0012B40F097800026ED
:106DD0005A486578818AFDF7B9FB081A80B226B156
:106DE000022892BF0020023880B28542ABB200F286
:106DF000858031465148A21C02B0BDE8F047FEF73D
:106E0000C9B99A4663E70026334675E71E468AE706
:106E100095F828304B48BA1C0DF10701FEF757F9D9
:106E200010F0FF000BD09DF80730002B08BF4FF08B
:106E300001083B78787068F301033B708AE74FF0F4
:106E40000108F6E7A3780C2B0AD80C2B0AD8DFE848
:106E500003F03F2B580909090909600909091800BD
:106E6000142B7FD0394A12782AB1162B00F0968065
:106E7000182B00F0A28007223548022102704370CF
:106E80000DE00C2332484FF0FF3203700123827073
:106E900043700222037100230621C270437102B0C5
:106EA000BDE8F047FEF7B8B8617A237A294A43EA89
:106EB000012393801346284943F8061BD4F8031096
:106EC000C2F80610B4F807209A80627A9A7115E029
:106ED000627B237B1F4943EA02238B800B461F4AB8
:106EE00043F8062BD4F80320C1F80620D4F8072075
:106EF0005A60B4F80B201A81627B9A7202B0BDE826
:106F0000F0872A89134B05329A80154A1A60E27875
:106F1000DCE7D4F803303A8C0D48134003F0FF034C
:106F200022F0FF02134309210246C0F8013000237A
:106F300002F8011B5360B2E7E8060020B00B002006
:106F40000C140020C80C002060130020E00D00206D
:106F5000000E0020EC0D0020A54400001D4500009F
:106F600001700000B4F80530B4F80320DB08934248
:106F700028BF13462B8515231D4800216FF00404FC
:106F80006FF027020370072381708171447009211B
:106F9000C27003714471C271037280E72279E37891
:106FA0001348134003F00303022B18BF01231722D9
:106FB000032102704370837071E76279A1790D4BF0
:106FC00042EA01229A800C4A1A60D4F80320C3F8DE
:106FD000062093E7094B9B7E9A078FD45B078DD4DD
:106FE000FFF702FD02B0BDE8F047FFF72FBD00BF7D
:106FF000000E0020EC0D002029440000E8060020CF
:10700000054A08B5937E43F0400393760022034B74
:107010001A70FFF7D5FC00BFE806002044070020E7
:10702000EFF3108072B67047FEF716BFF8B504464E
:107030004AB10125302626488D4006FB040053B393
:1070400041F2100685513020072904FB00F025D8B5
:10705000204E4FEA810E0644EFF3108072B60F27E0
:10706000D6F800C002FA0EF585EA0C0507FA0EF70D
:107070003D4085EA0C053560FEF7EEFE52B901226F
:1070800002FA01F13022124802FB0400E3B141F29E
:107090001003C150F8BD42F21006D3E70E4EA1F125
:1070A00008070644BF00EFF3108072B64FF00F0CD4
:1070B000D6F800E002FA07F585EA0E050CFA07F7A4
:1070C0003D4085EA0E05D6E742F21003E1E700BF36
:1070D00000C0034004C003400CC00340054B5B6983
:1070E000C3F38512827003F03F021B0B42700370E2
:1070F000704700BF00C007404FF040232DE9804893
:10710000D3F89430A5B013F0400F1CAF1BD14FF053
:107110000053002538461D60FDF7E8F8FDF750F9EB
:10712000C0B1446BFFF71AFA1E9B13F0040600F07F
:107130003F81FDF745F9AB6AB3F5804FC0F065813B
:10714000FFF77EF806E04FF000531A68022ADED1FE
:1071500000221A60BFF34F8FBFF36F8FAF4BB04861
:107160005A6AB04C22F480325A62D3F89420844296
:1071700022F00102C3F8942008BF4FF08042D3F8F8
:10718000C0101CBF20F01F02203A21F0FF0141F087
:10719000A001B2F1005FC3F8C0100CD3A24DA34E02
:1071A000296842F00102C3F898100131C3F89C60CD
:1071B000C3F8A0202960844210D09B489C4B0268F1
:1071C000964923F01F0343F00303C1F89820C1F848
:1071D0009C30984B0132C1F8A0300260BFF34F8F52
:1071E000BFF36F8F05228D4BC3F894205A6A42F487
:1071F00080325A62BFF34F8FBFF36F8F3846FFF76D
:107200006DFF8D4A936DD90313D4536B23F4FF03A1
:1072100023F4FE4343F4BC1343F4A0635363136BA2
:1072200023F4704343F440431363136B43F4E0636C
:1072300013639DF87130012B0FD19DF8703063B945
:107240004FF000531B687D4B1B687D4B1B687D4BCB
:107250001B687D4B1B687D4B1B687D4BD3F88020E2
:1072600042F00302C3F880201B6F03F00703032BD7
:107270003CD045F60E0202216F4BC3F88020754AC0
:107280009162012102F5805291629A6DD203FCD481
:10729000714A1A619969714A01F000410A439A6181
:1072A0001A6A22F00D021A629A6A22F0330242F040
:1072B00001029A62604A6A4B916D33EA0101FBD187
:1072C0000221644B9962936D5E00FCD4136923F430
:1072D000700343F4001313614FF000425D4B9A6159
:1072E000022203F580539A6201229A620125524BD1
:1072F000574C9E6A03F580535A489D62FDF764FD22
:10730000236F06F0020643F480632367236F23F0A4
:10731000070343F003032367FEF7BEFCFDF754FDAC
:107320002846FEF7D1FC504A236F904294BF0020BC
:10733000012023F4806343EA802323670EB94B4B7B
:107340009D620123424A4A4DC2F880326B60494B2C
:1073500004241B6C06AA2B660023352008A9089379
:107360008DF81840FEF7E4FD0623089A8DF81640C4
:1073700012F4803F8DF8173009AC40F0E4822146CA
:107380002C200DF11702FEF7D3FD002800F08780B6
:107390003C200DF1160207A9FEF7CAFD18B19DF8B1
:1073A0001C0000F001009DF82A3060F3000372E039
:1073B000002C3FF4C5AEFCF7D9FF8442BFF4C0AE49
:1073C000FCF7D4FF04F1400383423FF6B9AE2046F8
:1073D000FCF7D4FF00283FF4B3AE63696BB9FEF746
:1073E0002FFFFCF7EDFF0446FCF7EAFF0B4B98601C
:1073F00023689D4663689847ACE69DF87030012B82
:10740000EDD1FCF7DDFFB36A96E65B6A9847044668
:10741000FEF716FF002CE4D19CE600BF00ED00E073
:10742000C80000201C010020A01300200300002041
:107430003B010020E1FFFF3F00C000400040002072
:107440000080002000C0002000000120004001203A
:107450000080004000D000402008B00B3C8C8C0322
:107460000300014000B4C40480F0FA0200E00040D0
:1074700000C001A80080E00F296E02F8011B013B4B
:10748000FAD29DF8293063F03F038DF829309DF83A
:107490002A3043F001038DF82A30C14B5C60002490
:1074A0004FF48071BF4BC04A5961C3E900229A6012
:1074B0001C82BE4BBE4A5961BE48C3E900229A6095
:1074C0001C8200F055FCBC48BC4B21460360BC4B01
:1074D000BC4E436000F0CCFCAFA3D3E90023306086
:1074E000CDE900234FF0FF334FF0FF3200F0DAFF19
:1074F00002224FF0FF31306800F0D9FF3C23942284
:107500001E93CDE91C32962339463068CDE92044DC
:1075100022941F9300F096FDAB4DAB4930682C7060
:1075200000F0EDFF10B10134032CF6D19C4C306813
:1075300001F06DF8B4F900202978306800F028FCDB
:107540000146306800F0C8FF6468DFF808A3002C2B
:1075500040F0FB815046FDF785FBB37B64F30003ED
:10756000B3731022994B9A4C83F82123002183F89E
:10757000222304F1080083F8262383F8252383F8C7
:10758000232383F8202383F824235C2206F009FDBB
:1075900042F210738F4DE3608F4B904AC4E9005361
:1075A00042F2015323814FF490733384012313700B
:1075B0001B224FF000088A4DDFF89C922A803E2063
:1075C00005AA0DF11501C9F800808DF81430FEF7F9
:1075D000AFFC58B19DF81530CDF870803946C7F82A
:1075E000048030688DF8723000F05EFF11230DF1D9
:1075F00013020FA936208DF81330FEF799FC2023D3
:10760000394639200DF112028DF81230FEF790FC48
:1076100080BB744B9DF8132018681B791C903B713C
:10762000002A00F09B811B2A28BF1B22531D8DF8C6
:1076300012300FA9531C0DF175008DF8733006F050
:10764000A3FC14A8FDF70EFB674A9DF812301288C0
:1076500024A9FA529A1C51FA82F20021149802F8D5
:10766000201CBDF85410093342F81F0C22F81B1CD3
:107670008DF8123020233A200DF1110214A98DF853
:107680001130FEF755FC48B9584B5A8B1B7FADF8AB
:1076900050208DF8523003238DF8113000224FF026
:1076A0000208534B5348C3E90022534B80F804802F
:1076B0000360FDF71FFC5148514B80F804800360C4
:1076C00010230372FDF7B6FD4E484F4B80F804803F
:1076D00003604E4B80F80880C360A0F81080CDE9AD
:1076E0000038434690E806001430FDF797FB9DF8FC
:1076F0001310002900F03D810FA84FF01008FDF78E
:10770000C3FD4348434B80F804800360FDF7F2FB60
:107710004148424B4FF6FE7B03600823404A037208
:10772000C260A0F810B080F80480FDF783FD3D48EA
:107730003D4AA0F810B002600C2202723B4A4FF0A2
:10774000020BC26080F80480FDF774FD08233848FE
:10775000384A03820260384A80F80480C26080F8A8
:1077600008B0FDF767FD3548354B80F804800360AD
:10777000344B80F808B0C36001230382FDF75AFD43
:107780003148324B80F804800360314B80F808B0F8
:10779000C36063E0AFF300800855005100000000B3
:1077A000FC010020C80C0020E00C0020B00B0020E1
:1077B000C80B0020C0E2000090130020455B0000D1
:1077C00084130020601300201200002000E100E07C
:1077D00044010020D6BE898E55555500E00D00208D
:1077E000EE01002061E100006BE10000F4E1000027
:1077F00048070020C41300206EE100008805002027
:1078000071E100005C07002074E1000012E200005A
:10781000E413002077E10000E005002088E100008B
:10782000716200003806002099E100008D650000BB
:1078300080040020AAE100001FE200009006002062
:10784000BBE1000084E20000D8040020CCE100008D
:107850001943000068130020200400204FF6FE7337
:107860000382FDF7E7FCA748A74B80F8048003607C
:10787000A64B80F808B0C3604FF6FE730382FDF795
:10788000D9FCA34BA34A1A604FF6FF729A809DF869
:107890001220202A05D8931D39469F48637506F0AB
:1078A00073FB9DF81120202A06D8931D9B4884F86D
:1078B0003D3014A906F068FBFEF726F9227C617CB6
:1078C000B2FA82F35B0963F30001237D617462F312
:1078D0000303B27B02F0010262F386132375637D1A
:1078E0000BB906236375BAF804108D4BB068C4F861
:1078F00016009980042194F83C3061F3030362F38D
:10790000861384F83C3094F83D3013B9062384F88C
:107910003D30B068BAF80420824BC4F83E009A802B
:10792000FEF750F9804E814B1B782BB1DFF80C82AB
:107930004046FCF70BFEF8B97D4A136923F00403B7
:10794000136130BFEFE7224699E52068B060A28856
:10795000A379AAF804208AF8063002E608238DF8F5
:107960001230744B1A889B78ADF875208DF87730FB
:1079700067E603216F48C0E6EFF3108472B6002378
:1079800040461A460DF11901FDF7A1FB2046FEF70E
:1079900063FA9DF8193013B10023C9F80030D9F803
:1079A0000020EFF3108472B6C2F501739BB240461B
:1079B00032440DF11901FDF78AFB03462046FEF71C
:1079C0004BFAD9F8000018440328C9F80000AFD9D1
:1079D0003488231D9842ABD306D87088002304282E
:1079E00006D0062800F07E810023C9F800309FE70A
:1079F000327904F1FF3A122A6B801FFA8AFA18D8FA
:107A0000012A19D9931E4C4F102B15D8DFE813F01B
:107A1000160014002C00140045001400F700140098
:107A20009A0014001400140014001400240114001F
:107A3000CA00522A00F0D0800622AAE0BAF1020F52
:107A400040F04E81B6F805400022B4F5007F28BF13
:107A50004FF400740323114650463B70A7F80140D1
:107A6000FEF746FA2C80BFE7BAF1040F40F0918090
:107A7000B6F80540A0B2FCF711FC58B1027A052116
:107A8000022A0CBF01230223397041687B707C807D
:107A9000032076E06C800A227BE0DFF8A4B0073C8C
:107AA000A4B20194CDF800B00223B6F80710B6F8DE
:107AB0000500ABF10202FDF7E1FE4FF6FF7A5045FB
:107AC000044604D17368C3F30F236B80E3E70023FC
:107AD0000130CDE9003351460223ABF1020280B2FE
:107AE000FDF7CCFE072350451CBF00F1FF3080B2EC
:107AF0003B70A7F80140A7F80300002204201146BC
:107B00003FE000BF28040020DDE100002D50000010
:107B10005007002048070020600100208801002055
:107B20005A010020820100201C020020440700208E
:107B300000ED00E067E10000F2010020B00B002042
:107B400027020020BAF1020F40F0CA80B6F8050003
:107B5000FCF7A4FB00283BD0037B990714D52B88A6
:107B60000DF11A02013BADF81A30B6F805000BA969
:107B7000FDF7AEF9024640B90B23BDF81A200B9968
:107B80003B70FEF7B5F92FE752467368C3F30F2336
:107B90006B800124584B307969881C70587059806B
:107BA0001A71AAE7B6F80500FCF778FB80B1037BF1
:107BB0001A070FD5E21E92B25049B6F80500FDF73C
:107BC00051F902460028E0D1132301463B70D8E763
:107BD0000122DAE70322D8E7B6F80500FCF75EFBDE
:107BE00000283FF401AF037B5B077FF5FDAEE21E8B
:107BF0004249B6F8050092B2FDF734F9F4E6631F86
:107C00009BB2022B01D0102B6AD10022CDE90022B9
:107C1000DBB23B4AB6F80710B6F80500FDF72EFEBA
:107C20004FF6FF73984204463FF44CAF2B880DF19A
:107C30001A02043B0BA9ADF81A30FDF749F90246C8
:107C400008B16C80A5E70923BDF81A203B70931C8E
:107C50000B997B707C801BE7631F9BB2022B01D0CA
:107C6000102B3DD14FF0000ACDE900AADBB20393FF
:107C7000234AB6F80710B6F80500FDF7FFFD4FF6EA
:107C8000FF7B58450446039B3FF41CAF0130594627
:107C9000CDE900AA1A4A80B2FDF7F0FD82462B8892
:107CA000584518BF00F1FF3AA3F106030DF11A027F
:107CB00020460BA918BF1FFA8AFAADF81A30FDF753
:107CC00007F902460028BCD11123BDF81A203B70E9
:107CD000131D05200B997B707C80A7F804A050E74A
:107CE000042256E7CDE90D33064B0BA90B93022373
:107CF0000C93FEF7D5F877E6F2010020230200206E
:107D0000250200201000002007B5014601A8FFF75A
:107D1000E5F99DF8063001220B804FF480730020B6
:107D20004B80054B9B680A3303F01F0302FA03F3F1
:107D30004B6003B05DF804FB0080E00FFEE700003D
:107D400008B5FDF781FF074B0748DA1C121AC11E60
:107D500022F00302994288BF0022044906F014F978
:107D6000FCF70CFA2401002010000020540601004A
:107D700038B50446054D00F0D3FB0FCC0FC594E891
:107D80000F0085E80F00002038BD00BF0C15002053
:107D900047F6FF739A42F0B563D0032963D8334B9B
:107DA000CF0003EBC10013F831108478012913D1FF
:107DB0000025C3781B1B9D4202D3E018C0B2F0BD62
:107DC000591B4668A3EB510136F911609642D4BFA6
:107DD0000D4601F1FF33EEE740680028EFD0B0F91F
:107DE0000010914204DBB0F902109142B8BF114675
:107DF00082883B44FF2A19BFC8222826B0F90620F2
:107E0000B0F90860A2EB01020CBF0125002592FB2E
:107E1000F6F25F782A447B1E934228BF13464FF444
:107E20007A7E00EBC305AE68EA88AC4611FB0262BD
:107E30001E4622EAE272013302F5FA729F42B2FB59
:107E4000FEF204D9BCF80CC008359445EBD200EB27
:107E5000C6008088904228BF1046A04238BF204606
:107E6000ACE7FF20ABE70020A9E700BF0C1500201E
:107E7000F8B50D4610B900242046F8BD0E4F3E68F7
:107E8000002EF8D100F082F804460028F3D03860C4
:107E900000F0B0F8204600F0A2F838B130463E605D
:107EA00000F0A8F8204600F095F8E4E7002DE3D0B4
:107EB0002046A847E0E700BF2C15002008461146E1
:107EC00000F0AAB8F7B5114D04460F466E680121BF
:107ED0000020CDE90032B047DDE9003206463946E0
:107EE000204601F0D7FD044618B901202B689847B9
:107EF00004463EB100F0CCFB00B91CB100216B6818
:107F000008469847204603B0F0BD00BF240000207B
:107F1000F7B5104D04460F466B6801210020019211
:107F2000984739460646019A204600F0C2FA0446B0
:107F300018B901202B68984704463EB100F0A8FB11
:107F400000B91CB100216B6808469847204603B071
:107F5000F0BD00BF2400002070470000431E033323
:107F600006D8044B984228BF1846642838BF6420BE
:107F7000704700BF40420F00431E012B03D9031F6F
:107F8000584258417047012070470000F8B5054637
:107F9000FDF756FE07460E4B1E6826B93846FDF71C
:107FA0005BFF344610E0B46884B1237C9C46DB0759
:107FB0000CD44CF0010C95E80F0084F810C084E854
:107FC0000F003846FDF748FF2046F8BD3668E4E765
:107FD000180000204FF4C072002105F0E2BF10B578
:107FE0000446002100F076FA2046BDE8104001F07A
:107FF000ABBB000010B5044618B9054B054A136029
:1080000010BD00F0DBFCD4F89830002BF6D1F4E77B
:10801000597F00001C00002010B50C4600F0E4FC65
:108020001CB100F035FD0128FBD1BDE81040024B2A
:10803000002103205B6818472400002000F03CBEAC
:1080400000F050BE08B502460868FFF787FF0860D9
:108050004868FFF783FF48608868FFF77FFF886004
:10806000C868FFF77BFF0B69C860581C03D00B483A
:10807000834228BF03460B614B69581C03D0074855
:10808000834228BF034688694B61FFF767FFBDE85D
:1080900008408861104601F09FBB00BF40420F00BE
:1080A0002DE9F84FD0F8903080460E4613B1038B7F
:1080B0008B4279D0D8F88CB0BBF1000F44D0DBF8FC
:1080C0000830002B40D0DBF80C20002A3CD0D8F838
:1080D000A0A0BAF1000F3AD04FF000094D464F462C
:1080E00001E0DBF80830C5EBC50403EB8404E38949
:1080F0000135B34217D8238AB34214D3B4F91230EE
:10810000B8F9241003EAE372994254DD404698F826
:10811000DC10FFF73DFE98F8153081468342274674
:1081200004D9DBF80C209542DBD347B300233A4651
:1081300040461946D0470020A8F81860C8F890704B
:1081400088F8E590BDE8F88F0320BDE8F88FD146A8
:1081500047F6FF7554465146C4EBC40703EB870747
:10816000FB89B3421AD83B8AB34217D3B7F912201E
:10817000AA4202EAE27204D14FF0FF09DBE70120D4
:10818000E0E7404698F8DC10FFF702FE98F815305B
:1081900081468342CFD93946DBF80C200134A24214
:1081A00005D9DBF80830D7E70020BDE8F88F0029B3
:1081B000E5D00F46BFE72746B8E700BF2DE9F047F7
:1081C00082B00446884617461E4601F070FC01F056
:1081D00077FC00286FD1DFF8A891D9F800301BB1E7
:1081E000D4F88C2093422CD000F052FC012868D1A6
:1081F000D9F80030002B00F093801A68002A00F0B4
:108200008F80D4F88C1009688A427ED0D4F89030E0
:108210001A68204601F0F8F9D4F8A0A00127054615
:108220008DF80760BAF1000F62D000222046114697
:108230000DF10703D047B5B137BB284602B0BDE802
:10824000F0874B4B1B68002BCED0D4F89020934284
:10825000CAD1484B1B68984566D000F019FC01282C
:108260003ED001252EE0D4F88C30D4F89020C9F807
:1082700000303F4B20461A603E4BC3F8008000F0B0
:10828000BBFE0546002FD8D0B5FA85F040F2053286
:108290003321400900F096F93146204601F0C0F93B
:1082A0000546354B20461B68D4F890109847284661
:1082B00002B0BDE8F08700222D4B1A6001F0F8FBF8
:1082C00089E70025012000F08FFB00F0E1FB012889
:1082D000FBD12A4B002103205B689847002D87D0F3
:1082E000D4F8A0A000258DF80760BAF1000F9CD14A
:1082F000617D94F8E5303246994228BF1946204600
:1083000000F0F7FD002D97D1ADE7194A12680AB3C6
:108310001168D4F890201268914219D0596878E712
:10832000D4F88C30196871E706B127B900252846C2
:1083300002B0BDE8F0870122D4F8A0508DF80720E4
:1083400065B10022204611460DF10703A847EDE76D
:108350000127C5E7D4F890201268DFE7617D94F823
:10836000E5302046994228BF194600F0C2FDDDE7FE
:1083700038150020301500201C00002024000020AB
:1083800034150020F8B50E460546FDF759FC314678
:1083900007462846FFF784FE044620B13846FDF71D
:1083A0005BFD2046F8BD0346024631462846FFF7EE
:1083B00005FF04463846FDF74FFD2046F8BD00BFD7
:1083C000F8B506460C4659B30B6843B11B68013338
:1083D00026D0CB681BB18B68003B18BF0123184621
:1083E000CB22412100F0EEF8204602F0C9F800232C
:1083F0004FF6FF724FF01C0C86F8E830C6E92343B5
:10840000E768D8B287420DD8154600230B4A2946A3
:1084100013600B4A30461360FFF7B4FF2846F8BDDF
:108420000023DCE7A1680CFB0011CD89954202D244
:10843000002DEAD02A460133E3E700BF34150020BF
:1084400038150020008B70470A7838B5054610466D
:10845000FFF792FD60B14C782046FFF78DFD38B1F3
:108460002243530704D42846BDE8384000F070BCCE
:10847000012038BDFFF7E8BF10B504460878FFF7C4
:108480007BFD58B14A781046FFF776FD30B1042ADB
:1084900004D02046BDE8104000F090BC012010BD83
:1084A000FFF7EABF00F04ABA084601F0F3BC00F05B
:1084B00091BB37B504460D460192FFF763FF38B90B
:1084C00029462046019A03B0BDE8304000F068BB61
:1084D00003B030BD01F0FCBA13B504460020019191
:1084E00002F04CF8D4F8A03033B92046019902B01C
:1084F000BDE8104000F03ABD022002B010BD38B512
:10850000044648880D4602F039F8D4F8A0302BB95B
:1085100029462046BDE8384000F09ABC022038BD0C
:1085200002F02DB838B505460C46FDF789FB296BDE
:10853000EB6A0C402343EB62FDF78EFC00200CB984
:10854000002138BD4FF40071FBE700F0F9BF01F0E6
:1085500013B800004FF4007307B50A490DF1060285
:10856000ADF80630FFF7F3FFBDF80630B3F5007F36
:1085700005D1022808BF002003B05DF804FB0120EC
:10858000FAE700BFC01600200846114601F03ABFC6
:1085900000F0C2BF38B50446154609B101F009F82C
:1085A00025B12046BDE8384001F006B838BD0000CE
:1085B000024B1960024B1860FEE700BF200000204C
:1085C000C418002008B550B90548064B01601A6070
:1085D000054B1A68054B1A601868FFF7E9FF08BDDC
:1085E00020000020C01800202C150020C4180020F6
:1085F000437C03B108470220704710B5044601F0E0
:1086000033FB2046BDE81040032100F057BAFFF7C6
:10861000F4BF00000149FFF7EBBF00BF419C000021
:108620000149FFF7E5BF00BF199C000037B5437C47
:1086300005460C46BBB101F09DFB61680246019006
:10864000284601F041FB206890FAA0F0000A00F0F3
:10865000FDFBA17A2089019A81F0010101F056FB0E
:10866000002003B030BD0220FBE71FB5ADF80C3091
:108670009DF81830CDE9011201A98DF80E30FFF7F1
:10868000D5FF05B05DF804FB00207047002070475F
:10869000014B1878704700BFC8180020024BD868FB
:1086A000C0F30360704700BF000002A870470000DD
:1086B000431C07D06FF0FF02034B10401A62A3F572
:1086C00080531862704700BF00E000A8426B0E4B59
:1086D00002F06002402A11D0602A03D0202A10D173
:1086E000012206E069B10A68012A0AD94A6942F002
:1086F00001029A648022054B1A61704740F2011210
:10870000F7E70022F5E700BF001F00B0000002A855
:1087100008B5094AFFF7C2FF0B2806D00C2809D07C
:10872000092814BF0020022008BD106F10F480300B
:10873000F0D1F9E70220F7E7000002A80121094B78
:10874000D3F8EC20196352074FF4005148BF0422BC
:1087500003F50053D96244BFA3F58053C3F8EC205E
:10876000704700BF0040004437B50C46194D41B971
:108770000A46072104F01CFE174B6C625C6003B0D4
:1087800030BD0722114604F013FE0722134B0121CE
:10879000DA60237901A885F824306379019304F025
:1087A00028FE019BC2B2D34000F00F0040EA031044
:1087B00085F82500A3790A4A85F82630E37985F8FB
:1087C00027302368AB6223790133136204F010FE73
:1087D000D5E700BF001F00B0241F00B0006000A854
:1087E000004000A800F01803182B074B02D100220C
:1087F000DA647047010701D50122F9E7C206F6D510
:1088000040F20112F4E700BF001F00B03F4B2DE91A
:10881000F3411E6840F2022317460B4000F00102AC
:10882000134305460C4644D0880709D5384BD3F886
:10883000D83E03F0C003402B02BF0221354B9960A4
:108840004FF000085AB30023002200210120CDE997
:10885000008803F0A1FC042002F078FB4FF0FF3009
:1088600002F09EFF414670830120FFF7D5FB2A4BA3
:108870001B6F590208D4736B13F0800F4FF4001371
:1088800014BF264A264A136226490868FFF710FFDC
:108890004FF0FF330B60337C43F008033374A205C1
:1088A00007D501213046FFF73DFE24F4007405434F
:1088B0000C43D6E940232A40234052EA030103D067
:1088C0001949304609688847FB070FD51749184AE8
:1088D00008680021136811600121164A117003B164
:1088E0009847154B002102205B68984717F00E0F40
:1088F00008D04FF4B6723B21002002B0BDE8F04131
:10890000FFF760BE02B0BDE8F08100BF2C1500206B
:10891000001000B0001002A8000002A8005001A83A
:10892000006001A8300000202C000020E818002082
:10893000E4180020E018002024000020F7B5D0E95A
:1089400040C71946DDE9086304468CEA060587EA54
:1089500003001540084085EA0C057840C4E9405002
:1089600000250B4022F0010043F4007306EA0002E8
:1089700043F00203CDE9005503F00EFC237C9A0777
:1089800017D5D4F804319B0513D54FF48031204618
:10899000FFF7C8FD237C65F341032374D4E940232A
:1089A00002400B4052EA030103D003492046096804
:1089B0008847002003B0F0BD2C00002038B10368C8
:1089C000044A002B08BF1346034A13607047014B4B
:1089D000FAE700BFAD8600002C000020014B00200C
:1089E000D9637047001F00B003282DE9F3413CD83C
:1089F0001F4B1E5C1F4B1F5C1F4B13F80080FDF7C5
:108A00001FF9054603F096FD044640B100230022FD
:108A1000CDE9003301200023002103F0BDFB3946DE
:108A2000304603F0A5FF42463946304603F0F4FFD6
:108A3000ACB1124B1B6F5B020AD4114B1B685B6B12
:108A400013F0800F4FF4001314BF0E4A0E4A136246
:108A50000E490868FFF72CFE4FF0FF330B602846E5
:108A600002B0BDE8F041FDF7F7B902B0BDE8F08112
:108A7000C8E30000CCE30000D0E30000000002A83F
:108A80002C150020005001A8006001A83000002033
:108A900008B5FFF703FE0138C0B20B2802D8054B1A
:108AA000185C08BD044B5B6913F0060F0CBF012076
:108AB0000420F6E7D4E3000000C001A831F00F0263
:108AC00010B50BD1FFF7E4FF012809D1054CA36BCA
:108AD00023F00F0001431046A16310BD0120FCE705
:108AE0000220FAE7001F00B008B50D4B1A6F12F014
:108AF000A00F13D15B6F5B0701D5012008BD094BA7
:108B0000D3F8D83E23F07F4323F0FF03002BF4D0AB
:108B1000FFF7C4FD092801D00C28EED10020EDE7B5
:108B2000000002A8001000B0024638B588B9194B01
:108B30001B684BBB0125C1F11C04C4F11C03002BB5
:108B4000B8BF5B42232B23DC7DB1134B197000208F
:108B500038BDFFF79DFF012818D10F4B002593F971
:108B60000040C4F11C04641AE7E79174FDF768F84B
:108B70000A4AE402D36904F4FF2423F4FF231C43CC
:108B8000D461FDF769F9E2E70320E1E70220DFE7BE
:108B90000120DDE72C150020D818002000C000A817
:108BA000114603F025BD0000094B08465A6A9102A0
:108BB0000BD4D3F80021D20708D4D3F8803013F4B3
:108BC000706F14BF0120002070470120704700BF64
:108BD000004001A870B515460C46426B064682EA75
:108BE00005030B40534043632D4A01F00B0323EA76
:108BF0000501D1642B40A2F58052D364630710D5E0
:108C00000121FFF7D1FF60B103F054FE4FF4007370
:108C100015F0040F14BF234A234A53620422234B46
:108C20001A67E00606D515F0100F14BF00221B22AC
:108C30001F4B5A65210618D52A0620D54FF400127D
:108C4000184B1A62012203F58053C3F80021FCF788
:108C5000F7FF0E210546032002F042FD40F20122FB
:108C6000134B2846DA62FDF7F7F814F0600F04D0D2
:108C70003046D6F89410FFF729FD002070BD0D4B4B
:108C80001B6F5B02F1D44FF4001196F8CE30064A08
:108C90001162002BE9D00122024BC3F80021E4E766
:108CA000006000A8005001A8006001A8002002A8F0
:108CB000004000A8000002A8014B186A02F022BD83
:108CC000004001A8D0F894304BB11A68022A06D9A6
:108CD00093F8250028B11B6AB3FBF0F07047FFF74B
:108CE000ADB97047014B186A02F034BD004001A8CD
:108CF000D0F8942072B11368022B0BD9536A13F485
:108D00007F4FC3F3072007D0126ADBB25343B3FB94
:108D1000F0F07047FFF794B970470000437C5A1F8A
:108D2000012A01D9082B05D14B7B2BB1012B05D092
:108D3000022B05D0FFF7DCBF02487047024870479E
:108D40000248704720A1070048E8010040420F0098
:108D500070B50E46FCF774FF0546FFF7D9FC0446D4
:108D600020B12846FDF778F8204670BD03F0A2FD3B
:108D7000104B3278D3F8D83E022A23F0F00315D0F6
:108D8000042A0CBF0222002243EA02137278022A4C
:108D90000ED0042A0CBF0222002243EA8213054AA5
:108DA000C2F8D83E0422044B1A67DAE70122EBE747
:108DB0000122F2E7001000B0002002A838B50D46ED
:108DC000FCF73EFF04461E4AFFF768FC062826D83B
:108DD00004282BD8032829D003F06CFD194B2A78DE
:108DE000D3F8D83E022A23F00F0324D0042A0CBF64
:108DF0000222002213436A78022A1ED0042A0CBFE2
:108E00000222002243EA82030E4A2046C2F8D83EDC
:108E100004220D4B1A67FDF71FF800200AE007280F
:108E2000DAD1D2F83031002BCED1D5E72046FDF78C
:108E300013F8022038BD0122DCE70122E2E700BF7F
:108E4000000002A8001000B0002002A802F000BD3F
:108E50002DE9F8430E780446032E0D4690F8DC8089
:108E60000BD100275FFA87F9484601F0ABFC08B147
:108E70004E4602E00137032FF4D1304601F0A2FC48
:108E800090B384F8DC60AB8804F1DC06A4F8E03031
:108E90006B883046A4F8DE30AB88A364FF23A3754B
:108EA00001F0DAFB054600BB304601F081FC0546C7
:108EB000D8B9D4F8903053B194F8DC10414506D0BD
:108EC0002046B3F91220FEF763FF84F8E500204640
:108ED00001F0D8FD0121A4F8E00004F1A40002F0A3
:108EE00043FF2846BDE8F8830125042384F8DC30DD
:108EF000F7E7F8B5054690F8DC000C46042816465E
:108F00002FD0FF292FD001F0BDFC074695F8DC00DB
:108F100001F0A4FCA04215D323469F4295F8DC0043
:108F200016DB01F0AFFC04462046AC7501F046FDAF
:108F3000A0F1FF035C425C4116B9284601F0AAFC8F
:108F40002046F8BD95F8DC0001F088FC0346E4E714
:108F500001F084FCA042E7D295F8DC0001F07EFC31
:108F6000E1E70224ECE70124EAE7000038B590F8D5
:108F7000DC300446042B3BD0D0F890504175A5B3AB
:108F8000D0F8A030BBB990F8E5308B4219D300225D
:108F90002046FFF7AEFF054658B9164B1B78022B4B
:108FA00007D8204601F06EFD012104F1A40002F073
:108FB000DBFE284638BDB0F92420B5F912309A42BC
:108FC000E5DD0022204694F8E510FFF792FF054604
:108FD0000028EED1C4F890002046FFF733FA01468E
:108FE0002046BDE83840FFF7CDB9FF238375E0E7A1
:108FF0000225DEE73E00002070B5C36B8AB0012B6E
:1090000003D1002528460AB070BD0446774902F016
:1090100065F9D4F89060258BC4F894002EB13368BC
:109020001BB15B68002B40F09A80FCF709FEFCF74F
:1090300013FF0123D4F894008DF80A30B389D6E9E0
:109040000121EB1A9BB201FB03226949ADF80830FC
:109050000B680192834217D058B103684BB1036982
:109060003BB1D3E900129B68C4E92912C4F8AC30C3
:1090700004E00023C4E92933C4F8AC30014620469B
:10908000FFF724FBD4F89400002843D00368032B97
:1090900040D920469DF80A20019905AB02F020FC3A
:1090A000002858D1534A5449FFF7F8FA431EDBB25F
:1090B0000B2B45D8D35C012BF6D105A901A802F0F2
:1090C00081FD0546002846D1237C60F341032374CB
:1090D00000F01EFFD4F890305A69431E1668DBB2C8
:1090E000FD2B039642D853680128049361D10646AC
:1090F000D91C49D8024603A9204600F06BFE002E79
:1091000080D1D4F804319B0559D4237C43F0020369
:10911000237477E7374A3849FFF7C0FA431EDBB2BA
:109120000B2B08D8D35C012BB3D0FFF7B7FA431E43
:10913000DBB20B2BF6D94B6913F0060FA9D0EBE786
:109140004B6913F0060FAFD105A901A802F03AFD53
:1091500005460028B8D0022528460AB070BD1A6816
:10916000032A7FF662AF9B6A5B0E65E7F31C14D996
:10917000224B01361B6818BF0126D91C17D9FF28BE
:10918000536830D00493BAE701331C4B08BF002664
:109190005B68DA1C08D80493ACE701265368FF2803
:1091A0000493A5D00020A5E7FF28A8D1FAE70393F0
:1091B000F4E7024603A9204600F00CFE22E74FF434
:1091C00080312046FFF7AEF9D4F80021D4F80431FD
:1091D00002400B4052EA03013FF414AF0849204615
:1091E000096888470EE70120049381E7FC1F00B05F
:1091F000D4180020D4E3000000C001A854000020CF
:109200002C0000204FF4807104F0E6B838B590F8D7
:10921000E8400546ACB1FCF713FD1F22094B013CA9
:109220005A621440A3F580535C62D5F8EC20A3F594
:1092300080539A66D5F8F020DA66BDE83840FCF72E
:109240000BBE38BD006001A810B58B780246012B1B
:109250000C4600F28980CB78012B00F285800878DB
:10926000012800F28180497804297DD809B1012BB9
:109270007AD1012841D02068C2F8F4006378002B2D
:109280003CD13A49C1F88C304FF06051384B1962EB
:10929000384B1B7813B10621374B99674FF080513B
:1092A000364BD967A3F500531B6F5B0208D4536B91
:1092B00013F0800F4FF4001314BF314A2C4A13628D
:1092C0004FF480722F4BC3F8EC20C3F8E020A37852
:1092D000002B40D140F6FF722B4BDA62E378002B73
:1092E0003CD140F6FF72284BDA656022274BDA64E6
:1092F00003F5E833402200201A6710BD013BDBB2C2
:10930000032BE4D84FF06051214A52F82330184A19
:1093100043F400131162A2F5805213620423A2F5F4
:109320008832C2F88C30936F23F0060343F00403B5
:1093300093674FF08052174BDA6703F003F9002868
:10934000C5D04FF480730F4AC2F8E030A2F58052C6
:10935000C2F8EC30BBE7FFF7F1F9BFE76022064B3C
:10936000DA6403F5D833C5E70120C6E7004000A85A
:10937000006001A8D0180020006000A8002002A80A
:10938000005001A80060004400400044005000A8C4
:10939000B8E30000001002A82DE9F74F0746154674
:1093A000084619B9012003B0BDE8F08F002AF9D0B2
:1093B000032904D8002101F025F80028F2D0827892
:1093C0000488037990F80590B0F806B0B0F9000071
:1093D00002F007010028C0F29980CE1F7042704150
:1093E0000529287294BF0020C2F30010C2F3801632
:1093F000687290092E7300F00200C2F3C006304379
:10940000C2F340126873AA730BB997F8D630013BC8
:10941000DBB2EB737B6BDB0672D4063901296FD8A4
:1094200001263B4B063C5B6D3A4BDA6B9B6B42F083
:10943000005803F0070306339E40013E344018F8FD
:1094400004A07B7CAAF1320A01344FFA8AFA344034
:109450003BB30020D7F89C300BB151469847631CB2
:10946000E87285F80AA0334018F80310013333403E
:1094700018F803200133334041EA022118F8032091
:109480000133334018F8033041EA024141EA0361F5
:1094900038466A7B02F046FD06232860AB71002047
:1094A00081E7D7F8943018F8042053B119680229DD
:1094B00007D993F824301BF4805F11D15000C0B25B
:1094C000C8E7294638460192FFF728FC0090384645
:1094D000FFF7F8FB009B019AB3FBF0F0C3B2EAE799
:1094E000CBF30B00C0000BB1B0FBF3F08145B0D85B
:1094F0000028AED0C9EB0929B9FBF0F0C043DEE784
:109500000020802328606B81A8714CE702204AE785
:10951000004000A800400044F8B50646144697797C
:10952000FFF73AFF054648B9A3793BB121463046DB
:10953000A771FFF7F3FB214602F0C4FC2846F8BDF3
:10954000B3FA83F3192B084610B5114612D0C3F1B4
:109550001903DBB2062B28BF06231A46941DE3B27B
:1095600001249C40A4B2A14228BF214600F038FD4E
:10957000204610BD0022F1E7138808463F2B10B5A6
:1095800015D9B3FA83F3192B0FD0C3F11903DBB24A
:10959000062B28BF062319468B1DDCB20123A340EE
:1095A000138000F03BFD002010BD0021F4E70120F6
:1095B000FAE7FFF7C3B8000070B54FF48064094BB9
:1095C000094DD3F8EC600020C5F8EC4003F000FA38
:1095D0004FF40053EB65730544BF044BC3F8EC40F4
:1095E00070BD00BF004000440060004400500044D3
:1095F000082310B1024A13677047024AFBE700BF15
:10960000001002A8002002A810B514460846012147
:1096100001F0DEFF2046012101F0DAFF002010BD3D
:10962000F8B504460D4619B990F91030002B3DDB12
:109630004FF6FF73A18BD4F89470994204D0354B48
:109640001B680BB120469847334E3368BB4247D066
:10965000324B1B683BB11FB13A68002A42D0BF6849
:109660003946204698470727204601F00BFA8DB36C
:1096700094F91220FFF70CFA01280CD1284B93F92A
:109680000050C5F11C05AD1AC5F11C03002BB8BF75
:109690005B42232B2BDD06200122D4F89430214994
:1096A0003360214B886700201A70F8BD4FF6FF72B7
:1096B000037C194E61F3C713D0F8947003743368B8
:1096C0008283BB4222D0154B1B68002BC3D101F013
:1096D000D9F90727394604F1A40002F045FBC7E792
:1096E0000127C1E71746204639469847BBE7A274D1
:1096F000FCF7A6FA0D4AED02D36905F4FF2523F421
:10970000FF231D43D561FCF7A7FBC4E701F0BAF9BD
:109710000127DFE7DC180020D4180020CC18002037
:10972000D8180020006000A8D018002000C000A8B1
:1097300008B548220021034804F033FCBDE8084086
:1097400003F056BEDC1E00B0042373B580F8DC3095
:1097500000234FF0FF35837464230446C0E92F33A0
:10976000C0E93133C0F8B830A0F8CC30C0E90755B3
:1097700085644575C58202F0EFFE2046FFF7D8FFED
:1097800094F912102046FFF7CFF96022114B04F133
:10979000F401DA642046FFF757FD29460646626B5E
:1097A0002046FFF717FA0E230022CDE9003340F2DE
:1097B00002231046194602F0EFFC01F01BF82EB907
:1097C000204602B0BDE87040FEF7C4BE304602B08D
:1097D00070BD00BF004000A8034670B50C68B0F82B
:1097E000E020013408BFD3F8B8408D6808BF0C6092
:1097F0004C685A32013408BFD3F8C44092B208BF53
:109800004C606C1C00F1A40033D1D3F8C050CC687C
:109810008D60661C31D1D3F8BC400E69CC60013636
:1098200004BFD3F8B0600E614E69013604BFD3F8AF
:10983000B4604E618E69013604BFD3F8C8608E6192
:109840008E69F6B1B24238BF32460E688A61C3E90A
:109850002E644C68C3F8C050C3E931420A69C3F8AA
:10986000B0204A690721C3F8B42002F07DFA002035
:1098700070BD954238BF1546C9E7944238BF1446BB
:10988000CBE76422E1E7000038B5FCF7D9F94FF6E1
:10989000FF710A4A13888B4203D1FCF7DDFA0320DB
:1098A00038BD074C074D1B046566A4F580546366FC
:1098B0001180FCF7D1FA0020F2E700BF340000204D
:1098C000006001A80000FFFF2DE9F34105460E46A8
:1098D0001446FFF709F9002800F0BF80604B4FF4F1
:1098E00000612846D3F8D88ED3F8B07E03F074FD1B
:1098F00038B14FF4007201215A4B08461A67FEF73F
:109900008BFB31462846FEF73DFD554B0646C3F816
:10991000D88EC3F8B07E002840F082802B7C9F0652
:1099200001D4002C54D0C4F3400002F08FFF022376
:1099300014F4807F1BBF00214B4A4A4A136717BFAC
:109940004A4A13675161136302F0B4FF4FF4806316
:1099500014F0040F14BF464A464A14F0400F5362F5
:109960004FF004023F4B20461A674FF0400314BFEC
:10997000414A424AC2F88830FEF734FF2846FFF7D2
:1099800041FC38B14FF4807314F0010F14BF364A14
:10999000344A1367A00647D54FF6FF726B8C93428B
:1099A0000FD0374A3749526E100CC2F30112013200
:1099B000B3FBF2F308802E4A2E4933481B04486655
:1099C0005366003C18BF01242B7C64F345132B74B1
:1099D000284600F085F800B32846FFF713FCE0B1F5
:1099E0004FF40031284603F0F7FC002814BF02238F
:1099F0000123032201A9254800F074FB9DF80410FF
:109A0000234A01F00703052B9DF805301BD10907F8
:109A10000DD443F48073C2F8BC30002000F0AEFDDA
:109A2000304602B0BDE8F081FFF72EFFC9E713F022
:109A3000040F0CBF9DF806304FF48073144A08BF22
:109A400043F48073E7E703F03001202902D113F0DB
:109A5000010FEEE79DF80630DDE70226E0E700BFE4
:109A6000001000B0002002A8001002A8004000442E
:109A7000005001A8006001A800D000A800E000A8E4
:109A8000004001A8340000200000FFFF084000440F
:109A9000001E00B038B504461D46FFF715FF28B973
:109AA00029462046BDE8384002F080BE38BD7047E8
:109AB0004FF40022014B1A67704700BF002002A834
:109AC000024B186FC0F3C040704700BF000002A8EF
:109AD000014B024A1A607047CC18002069870000C9
